:020000040800F2
:10000000C8A80020450100086525000867250008EC
:1000100073250008752500087725000800000000FA
:10002000000000000000000000000000792500082A
:100030007B250008000000007D2500086D2D0008CC
:100040005F0100085F0100085F0100085F01000810
:100050005F0100085F0100085F0100085F01000800
:100060005F010008276400085F0100085F010008C5
:10007000EB2C00085F010008832C00085F010008DA
:100080005F010008B72C00085F0100085F0100084D
:100090005F0100085F0100085F0100085F010008C0
:1000A0005F0100085F0100085F0100085F010008B0
:1000B000C73400085F010008FB3500085F01000835
:1000C0005F0100085F0100085F0100082D31000892
:1000D0006B310008C1260008DD290008C94C000862
:1000E0005F0100085F0100085F0100085F01000870
:1000F0005F0100085F0100085F0100085F01000860
:100100005F0100085F010008E53400085F01000896
:10011000514E0008A94F00085F0100085F01000868
:100120005F0100085F0100085F0100081B2D000847
:10013000DFF80CD00DF098FD004800476924000856
:10014000C8A800200648804706480047FEE7FEE7AB
:10015000FEE7FEE7FEE7FEE7FEE7FEE7FEE7FEE777
:1001600009020008310100080CB500214B4801913B
:100170000091026842F4803202604FF4A06302688A
:1001800002F400320092019A521C0192009A12B9B4
:10019000019A9A42F3D10268920333D5012100916A
:1001A0003F490A6842F010020A600A6822F003021E
:1001B0000A600A6842F002020A60416841604168D0
:1001C0004160416841F480614160416821F47C11E3
:1001D0004160416841F4E8114160016841F080717B
:1001E000016001688901FCD5416821F0030141608B
:1001F000416841F0020141604168C1F38101022977
:10020000FAD10CBD00910CBD244810B5016841F035
:10021000010101604168234A114041600168224A9E
:1002200011400160016821F480210160416821F4DE
:10023000FE0141604FF41F018160FFF795FF1B49EC
:100240004FF00060086010BD144910B54868184AA6
:1002500010F00C03174803D0042B01D0082B0AD050
:1002600002604968134AC1F30311121D515C026810
:10027000CA40026010BD4A684B6802F470124FF029
:10028000020413F4803F04EB924202D04B689B03BC
:1002900001D5094B00E0064B5A43E1E7001002404C
:1002A000002002400000FFF8FFFFF6FE08ED00E02E
:1002B00000127A000000002000093D002849084390
:1002C00028490860704770B50F23C478017801226F
:1002D000F4B1244C2468457804F4E064C4F5E06487
:1002E000240AC4F10406E3408478B5401C402C4342
:1002F00001F1E021230181F80034007800F01F01B2
:100300008A404009800000F1E020C0F8002170BD63
:1003100001F01F0082404809800000F1E020C0F891
:10032000802170BD104A114001430E48001F01603A
:1003300070470C4A121D0029116801D0014300E0EA
:100340008143116070474FF0E0210428086903D011
:1003500020F004000861704740F00400FAE7000054
:100360000000FA050CED00E080FFFF1FC54910B545
:10037000884202D1012144150AE0C349884202D1D2
:100380000121041504E0C14988420AD10121CC03AE
:10039000204600F04CFD2046BDE81040002100F052
:1003A00046BD10BD10B54268B94B0C791A400B68B8
:1003B00042EA0422134343608368B64A1340D1E9FA
:1003C000024222434C7943EA44031A438260C26AE0
:1003D000097C22F47002491EC9B242EA0151C1628D
:1003E00010BD00210160017141718160C160012176
:1003F000017470470029816802D041F0010101E0D9
:1004000021F00101816070470029816802D041F428
:10041000807101E021F4807181607047002A426898
:10042000C9B201D00A4300E08A4342607047816844
:1004300041F0080181607047014600208968090782
:1004400000D501207047816841F004018160704748
:10045000014600208968490700D50120704700291E
:10046000816802D041F4A00101E021F4A001816083
:100470007047014600208968490200D50120704775
:100480004268491E22F4604242EA413141607047AD
:100490000029416802D041F4006101E021F40061CB
:1004A0004160704770B5072409290AD9C568A1F1D0
:1004B0000A0606EB4606B440A543B3401D43C5609B
:1004C00007E0056901EB4106B440A543B3401D4375
:1004D00005611F23072A09D2446B521E02EB8202D8
:1004E00093409C4391400C43446370BD0D2A09D254
:1004F000046BD21F02EB820293409C4391400C4359
:10050000046370BDC46A0D3A02EB820293409C43BF
:1005100091400C43C46270BD0029816802D041F44F
:10052000801101E021F4801181607047C06C80B2BD
:10053000704754484C30006870470029416802D029
:1005400041F4806101E021F480614160704700293D
:10055000416802D041F4805101E021F480514160B2
:100560007047826822F4E0420A43826070470029A3
:10057000816802D041F4004101E021F40041816032
:1005800070470029816802D041F4021101E021F492
:10059000021181607047014600208968890200D5F8
:1005A0000120704770B5072409290AD9C568A1F14F
:1005B0000A0606EB4606B440A543B3401D43C5609A
:1005C00007E0056901EB4106B440A543B3401D4374
:1005D0000561836BC3F30154121B921C02EB82046E
:1005E0001F22A2409343A1400B43836370BD826BE3
:1005F000491E22F4401242EA01518163704708B556
:1006000008440090026008BD08B5084428300090F6
:10061000006880B208BD42681F4B1A400A4342601E
:100620007047416282627047426822F01F020A43AB
:1006300042607047134908310028086802D040F42E
:10064000000001E020F4000008607047024600202E
:1006500012680A4200D001207047C9430160704708
:1006600010B50246002054680B0AC9B20C4011684C
:10067000194202D0002C00D0012010BD6FEA1121D8
:10068000016070470024014000280140003C014007
:10069000FFFEF0FFFDF7F1FFFFFD3FFF01684FF6A2
:1006A000FE72114001600021016041608160C16003
:1006B0006A496A4A0839904203D1486840F00F00FD
:1006C00006E0664A1432904204D1486840F0F000D7
:1006D00048607047614A2832904203D1486840F42C
:1006E0007060F5E75D4A3C32904203D1486840F4BF
:1006F0007040EDE7594A5032904203D1486840F4C7
:100700007020E5E7554A6432904203D1486840F4CE
:100710007000DDE7514A7832904203D1486840F0DA
:100720007060D5E74E4A111F904203D1086840F02F
:100730000F0006E04A4A1432904204D1086840F0A3
:10074000F00008607047464A2832904203D108689A
:1007500040F47060F5E7424A3C32904203D10868A9
:1007600040F47040EDE73E4A50329042EAD10868CA
:1007700040F47020E5E730B5036847F6F072934324
:100780000C6A8A682243D1E904452C4322438C69D0
:100790002243CC6922434C6A22438C6A22431A4387
:1007A0000260CA6842600A6882604968C16030BD00
:1007B0000021016041608160C1600161416181612E
:1007C000C16101624162816270470029016802D003
:1007D00041F0010102E04FF6FE72114001607047E6
:1007E000002A026801D00A4300E08A430260704791
:1007F00041607047406880B2704701460020CA00DF
:1008000002D5174A083A01E0144A083A12680A4227
:1008100000D001207047C10003D51149091F0860AD
:1008200070470E4908394860704701460020CA00E9
:1008300002D50B4A083A01E0084A083A12680A420F
:1008400000D001207047C10003D50549091F086089
:1008500070470249083948607047000008000240AC
:1008600008040240374900200860091D0860091D7E
:100870000860091D08603349334814310860704727
:1008800030B530498379026853B30B6893430B60EA
:100890000A1D13680468A343136002790A441368AD
:1008A000046823431360274A083213680468A3438B
:1008B0001360131D1C680568AC431C604479102C40
:1008C00005D021440A68006802430A6030BD1168FF
:1008D000046821431160196800680143196030BD44
:1008E0000079084401689143016030BD0021016036
:1008F00001710C22427181717047124910310A68EE
:1009000002430A60704701460E4A00201432126802
:100910000A4200D0012070470A491431086070472C
:10092000084A014600201268064B0A4014331B682F
:100930000B4202D0002A00D0012070470149143137
:100940000860704700040140FFFF0F00914910B597
:10095000884206D10121042000F069FA0021042018
:100960003BE08D49884206D10121082000F05FFA62
:100970000021082031E08949884206D10121102058
:1009800000F055FA0021102027E08549884206D161
:100990000121202000F04BFA002120201DE0814998
:1009A000884206D10121402000F041FA0021402078
:1009B00013E07D49884206D10121802000F037FAFA
:1009C0000021802009E0794988420AD1841501215B
:1009D000204600F02CFA00212046BDE8104000F02F
:1009E00026BA10BD10B50121084600F020FA0021FA
:1009F000BDE81040012000F01ABAF0B5CA78002511
:100A000002F00F03D20601D58A7813430A784FF01B
:100A10000F0E12F0FF0F4FF001021DD0D0F8004072
:100A20000F8802FA05F63740B74211D14FEA850C1C
:100A30000EFA0CF724EA070703FA0CF43C43CF78CC
:100A4000282F02D0482F02D002E0466100E0066164
:100A50006D1C082DE4D304600C88FF2C1ED944685B
:100A60005FF0000606F1080702FA07F50F882F402D
:100A7000AF420FD14FEA860C0EFA0CF7BC4303FAD3
:100A80000CF73C43CF78282F00D14561CF78482F11
:100A900000D10561761C082EE4D34460F0BD4FF60A
:100AA000FF710180022181700421C17070470246EC
:100AB000002092680A4200D001207047806880B20E
:100AC000704702460020D2680A4200D001207047D9
:100AD000C06880B2704701617047416170470AB1D8
:100AE0000161704741617047C160704741F48032D5
:100AF0008261816182618169806970472C4B10B588
:100B00001A684FF68074224042EA001008431860C9
:100B100010BD2849C8617047F0B5254C002801DA9E
:100B2000E36900E06368420D120185B2C0F301572A
:100B30009540C0F30346032F05D0C2020AD5032215
:100B4000B240934307E023F07062636823F0706360
:100B5000636002E0AB4343F0706201B12A430028B6
:100B600001DAE261F0BD6260F0BD10B58A0721F0E4
:100B700003040F49130F21440F228C689A409443B9
:100B80008C608A68984002438A6010BD0949C1F8A8
:100B9000DC00704700080140000C014000100140DB
:100BA0000014014000180140001C014000200140D9
:100BB00000000140000020420D49086070470C49C8
:100BC000486070470A498860704709494AF6AA2078
:100BD0000860704706494CF6CC4008607047044AEC
:100BE00001460020D2680A4200D001207047000070
:100BF00000300040A448016841F0010101604168F3
:100C0000A24A114041600168A14A11400160016897
:100C100021F480210160416821F4FE0141604FF41C
:100C20001F018160704798490A6822F480320A6087
:100C30000A6822F480220A60B0F5803F07D0B0F540
:100C4000802F03D1086840F4A0200860704708682E
:100C500040F48030F9E70246002053098A49012B0D
:100C60000AD0022B0AD0496A02F01F0201239340E6
:100C70000B4200D0012070470968F5E7096AF3E7E5
:100C800018B500204FF4A06400903120FFF7E3FF77
:100C90000099491C0091A14201D00028F5D03120D3
:100CA000FFF7D9FF002800D0012018BD76490A6857
:100CB00022F0F80242EAC0000860704775490860F7
:100CC0007047714A5368084323F47C1318435060FB
:100CD00070477049086670476B4A516821F00301FC
:100CE0000143516070476848406800F00C0070474D
:100CF000654A516821F0F001014351607047624A32
:100D0000516821F4E0610143516070475E494A68CF
:100D100022F4605242EAC000486070475A4A0029F3
:100D2000517A01D0014300E0814351727047594923
:100D3000C1F8D8007047544A516821F4404101433A
:100D4000516070475049002281F8202081F820200E
:100D5000012802D0042802D1052081F82000704724
:100D60004D490860704748490A6A02430A62704761
:100D7000494944390860704730B543494A6812F020
:100D80000C03464A03D0042B01D0082B21D002606B
:100D90004A680F23424C03EA1212A35C0268DA404D
:100DA00042604B68072505EA1323E35C22FA03F34C
:100DB00083604B6805EAD323E35CDA40C26049688C
:100DC000032303EA9131231F595CB2FBF1F1016166
:100DD00030BD4A684B6802F470124FF0020413F4FD
:100DE000803F04EB924202D04B689B0301D52D4B10
:100DF00000E02A4B5A43CAE7234A0029516901D02F
:100E0000014300E08143516170471F4A0029916905
:100E100001D0014300E08143916170471A4A0029E3
:100E2000D16901D0014300E08143D1617047164A86
:100E30000029D16801D0014300E08143D1607047AF
:100E4000114A0029116901D0014300E08143116179
:100E5000704711494039086070470E49C8647047AF
:100E60000949C87170470848416A41F08071416280
:100E70007047054A0146002092680A4200D00120CE
:100E80007047014988727047001002400000FFF867
:100E9000FFFFF6FE000042428004424200127A0048
:100EA0001800002000093D00994910B588420AD178
:100EB000841401212046FFF7BAFF2046BDE8104008
:100EC0000021FFF7B4BF9349884202D101210414E5
:100ED00004E0914988420AD10121C4132046FFF75A
:100EE000AFFF2046BDE810400021FFF7A9BF10BDAD
:100EF00030B502884C8802F441530A88CD882243D9
:100F00008C882C4322430C8922434C8922438C89B0
:100F10002243CC8922431A430280828B22F400624E
:100F20008283098A018230BDF0B505460C46022055
:100F30000021AA8B85B001264FF240031A40AA83F4
:100F40002884AF8BA268022A27D0A08800B102268D
:100F50006846FFF711FFE1880098B1F5007F2DD0BA
:100F60007101B0FBF1F000BF00EB8000A168400010
:100F7000B0FBF1F0401D80B20A21B0FBF1F000F0AF
:100F80000101401A4FF6FF72C0F34F0002EA01213F
:100F9000821EFE2A01D302200021E2880843024378
:100FA0002A8420886188A2890843A18811430843C4
:100FB000384340F40060A88305B0F0BD000AD3E7D1
:100FC0000021018041808180C18001814181818136
:100FD000C181072101827047002101804180818009
:100FE000C18002228260818170470029018802D07D
:100FF00041F0400101E021F04001018070470029EB
:10100000818B02D041F4806101E021F48061818311
:101010007047090901238B40002A828899B201D0C8
:101020000A4300E08A4382807047002A828801D008
:101030000A4300E08A43828070478181704780893B
:101040007047A1F57E420188FF3A02D041F48071D9
:1010500001E021F48071018070470029818802D06D
:1010600041F0040101E021F0040181807047028811
:1010700022F40062028002880A43028070470188DD
:1010800041F48051018070470029018802D041F469
:10109000005101E021F4005101807047012901D085
:1010A000008B7047808A7047008A7047B1F5804F87
:1010B000018803D021F480410180704741F48041D0
:1010C000FAE70246002012890A4200D00120704748
:1010D000C9430181704710B501F00F040122034696
:1010E00002FA04F4002009098A4091B29A88A4B255
:1010F0000A401989214202D0002A00D0012010BDE7
:1011000001F00F0201219140C943018170470000A5
:101110000030014000380040003C0040F94910B563
:10112000884202D10121C41486E0B0F1804F09D079
:10113000F54988420DD101210220FFF781FE0021EF
:10114000022064E001210846FFF77AFE0021012019
:101150005DE0EE49884206D101210420FFF770FED0
:101160000021042053E0EA49884206D101210820E9
:10117000FFF766FE0021082049E0E649884206D1D3
:1011800001211020FFF75CFE002110203FE0E24922
:10119000884206D101212020FFF752FE00212020A5
:1011A00035E0DE49884202D10121441444E0DC49A3
:1011B000884202D10121CC043EE0DA49884202D1C2
:1011C00001210C0538E0D849884202D101214C05A3
:1011D00032E0D649884206D101214020FFF730FE97
:1011E0000021402013E0D249884206D1012180200D
:1011F000FFF726FE0021802009E0CE4988420AD16F
:10120000841501212046FFF71BFE00212046BDE882
:101210001040FFF715BEC849884202D101210C04D5
:101220000AE0C649884202D101214C0404E0C449C5
:1012300088420AD101218C042046FFF7F8FD2046A0
:10124000BDE810400021FFF7F2BD10BD30B50288A7
:10125000AC4BB24C98420DD0A0420BD0B0F1804FB5
:1012600008D0A94DA84205D0A84DA84202D0A84D4B
:10127000A84203D122F070054A882A43A54DA8420E
:1012800006D0A54DA84203D022F44075CA882A434F
:1012900002808A8882850A88028598420AD0A04204
:1012A00008D0A54A904205D0A44A904202D0A44A50
:1012B000904201D1097A01860121818230BD30B589
:1012C000028C22F001020284028C8388048B22F0BB
:1012D000020224F073050C882C430D8915434A88BB
:1012E0002A43884DA8420BD08C4DA84208D0924D7D
:1012F000A84205D0914DA84202D0914DA8420DD1EF
:1013000022F008054A8923F440732A4322F0040599
:101310008A882A438D891D43CB892B43838004838C
:10132000C9888186028430BD70B5028C22F010021B
:101330000284028C8488038B0D8823F4E6464FF6E2
:10134000FF7303EA052535430E8922F0200203EAE4
:10135000061616434A8803EA02123243694EB04227
:1013600002D06E4EB04215D122F080064A8924F494
:10137000406403EA0212324322F040068A8803EAFC
:10138000021232438E8903EA86062643CC8903EA99
:101390008404344384800583C9880187028470BD36
:1013A00070B5028C22F480720284028C8488838B54
:1013B0000D8823F073031D4322F400730E894FF64A
:1013C000FF7202EA06261E434B8802EA03233343D8
:1013D0004C4EB04202D0514EB04215D123F40066BB
:1013E0004B8924F4405402EA0323334323F48066F8
:1013F0008B8802EA032333438E8902EA06162643CA
:10140000CC8902EA0414344384808583C9888187A7
:10141000038470BD70B5028C22F480520284048C67
:101420008288838B0D8823F4E6464FF6FF7303EA28
:101430000525354324F400560C8903EA043434436B
:101440004E8803EA063626432E4CA04202D0334C87
:10145000A04205D122F480448A8903EA8212224301
:1014600082808583C988A0F84010068470BD828B75
:1014700022F440628283828B4FF6FF7303EA0121DC
:101480000A4382837047828B22F00C028283828B14
:101490000A4382837047028B22F440620283028BEC
:1014A0004FF6FF7303EA01210A4302837047F0B548
:1014B000048C24F010040484078B048C4FF6FF7511
:1014C00027F4734705EA03333B4305EA02221A4334
:1014D0000C4B05EA011698420ED0104B98420BD0E7
:1014E000B0F1804F08D0084B984205D0074B984286
:1014F00002D0074B984225D124F02001314341F01E
:10150000100124E0002C01400004004000080040CD
:10151000000C004000100040001400400034014066
:10152000004C0140005001400054014000180040B0
:10153000001C0040002000400040014000440140E9
:101540000048014024F0A0030B4343F01001028344
:101550000184F0BD028B22F00C020283028B0A434D
:101560000283704770B5048C24F001040484058B59
:10157000048C4FF6FF7606EA0313134325F0F305B8
:10158000F94A2B4390420ED0F84A90420BD0B0F16A
:10159000804F08D0F64A904205D0F64A904202D0D9
:1015A000F54A904202D124F0020201E024F00A023E
:1015B0000A4342F001010383018470BD2DE9F05F0D
:1015C0000D4604460888E84FDFF8A0C3DFF8A08383
:1015D0004988AA882B894FF0804960B3042832D00B
:1015E0004FF6FF7E082836D0208C9B4620F4805092
:1015F0002084A38B268C704600EA022223F47343D6
:101600001A4300EA0B3010430EEA013EBC420BD0F5
:10161000644509D04C4507D0444505D0D54A94428D
:1016200002D0D54B9C4245D126F4005141EA0E012F
:1016300041F4805143E02046FFF794FFE9882046BB
:10164000BDE8F05F86E72046FFF731FFE9882046D6
:10165000BDE8F05F1FE7208C20F480702084B4F890
:101660001CA0208C0EEA031313432AF0F30A0EEA9F
:10167000012B43EA0A03BC420BD0644509D04C4518
:1016800007D0444505D0BB4A944202D0BA4A94429E
:1016900004D120F4007040EA0B0002E020F4206046
:1016A000084340F48070A3832084E9882046BDE885
:1016B000F05FE8E626F402420A4342F48051A08338
:1016C00020462184E988BDE8F05FD0E62DE9F041AD
:1016D0000C46002649880746012501B90226A28842
:1016E000012A00D10225208823890028384610D0FD
:1016F000FFF7DDFEE1883846FFF7CDFE23892A4655
:1017000031463846FFF72EFFE1883846BDE8F04104
:1017100020E7FFF727FFE1883846FFF71BFF238903
:101720002A4631463846FFF7C2FEE1883846BDE812
:10173000F041B0E610B50A884B88CC881A438B88F4
:1017400023431A430B891A434B8989891A430A4355
:10175000A0F8442010BD4FF6FF7181800021018068
:10176000C1804180017270470021018041808180E9
:10177000C180018141818181C18170470021018047
:10178000418001228280C180018170470021018057
:1017900041808180C1800181418181817047002920
:1017A000018802D041F0010101E021F00101018036
:1017B0007047002930F8441F02D041F4004101E095
:1017C000C1F30E0101807047002A828901D00A43CB
:1017D00000E08A4382817047818270471143A0F8FC
:1017E00048107047002A828901D00A4300E08A43EA
:1017F00082817047018921F00701018170470289C8
:1018000022F070020A430281704700B50346FFF7D9
:10181000F6FF188940F00700188100BD70B5164624
:101820000D46602904464FF0010231460AD0FFF709
:1018300099FE29462046FFF7E2FF208940F0070085
:10184000208170BDFFF733FEF3E730B504894FF612
:10185000FF7505EA03231343E4B20B4323430381DB
:1018600030BD10B50446FFF7F0FF208940F0770047
:10187000208110BD10B50446FFF7E7FF208940F432
:101880008040208110BD018582827047028822F04D
:1018900070020A430280704770B50589048B068C7C
:1018A00025F007050D434FF6FC410C4040F20111B5
:1018B0000C434FF6FF7101EA031126F02206114393
:1018C000314305810483018470BD028B22F07002D4
:1018D0000A4302837047028B4FF6FF7322F4E04203
:1018E00003EA0121114301837047828B22F07002C9
:1018F0000A4382837047828B4FF6FF7322F4E042E3
:1019000003EA01211143818370470029018802D035
:1019100041F0800101E021F0800101807047002941
:10192000818802D041F0040101E021F004018180AE
:1019300070470029818802D041F0080101E021F0C0
:101940000801818070470029818802D041F001019F
:1019500001E021F0010181807047028B22F0080232
:101960000A43028370470000002C0140003401400C
:101970000004004000080040000C0040028B4FF6BD
:10198000FF7322F4006203EA012111430183E9E7B6
:10199000828B22F008020A438283E3E7828B4FF6B0
:1019A000FF7322F4006203EA012111438183D9E726
:1019B000028B22F004020A430283D3E7028B4FF624
:1019C000FF7322F4806203EA012111430183C9E716
:1019D000828B22F004020A438283C3E7828B4FF694
:1019E000FF7322F4806203EA012111438183B9E786
:1019F000028B22F080020A430283B3E7028B4FF688
:101A0000FF73C2F30E0203EA012111430183A9E728
:101A1000828B22F080020A438283A3E7828B4FF6F7
:101A2000FF73C2F30E0203EA01211143818399E798
:101A3000028C22F002020A43028493E7028C22F015
:101A400008020A4302848DE7028C4FF6FF7322F0EE
:101A5000200203EA01111143018483E7028C4FF64F
:101A6000FF7322F0800203EA01111143018479E738
:101A7000028C4FF6FF7322F4007203EA0121114336
:101A800001846FE7028C4FF6FF7322F4006203EAD1
:101A900001211143018465E7028C4FF6FF7322F4A4
:101AA000005203EA0131114301845BE710B50123C1
:101AB000048C8B409C430484038C8A40134303842E
:101AC00010BD10B50423048C8B409C430484038C0C
:101AD0008A401343038410BD30B50124058C00F106
:101AE00018038C40A543058489B108290FD0091F2C
:101AF000C1F34E001844016821F4E041016001681F
:101B00004FF6FF7303EA02221143016030BD03EB7D
:101B10005100016821F0700101600168F4E70029BB
:101B2000018802D041F0020101E021F002010180B0
:101B300018E70029018802D041F0040101E021F0FA
:101B4000040101800EE70029818802D041F0800164
:101B500001E021F08001818004E7028822F0080280
:101B6000028002880A430280FCE6828822F070022A
:101B7000828082880A438280F4E6028922F007028A
:101B8000028102890A430281ECE6028922F0800286
:101B9000028102890A430281E4E68184E2E68185CA
:101BA000E0E68186DEE60187DCE68187DAE6A0F8FA
:101BB0004010D7E6028822F44072028002880A436D
:101BC0000280CFE6808ECDE6008FCBE6808FC9E61F
:101BD000B0F84000C6E6808CC4E6008DC2E602463E
:101BE0000020128A0A4200D00120BBE6C9430182CC
:101BF000B8E602460020138A92890B4202EA0102EB
:101C000002D0002A00D00120ACE6C9430182A9E637
:101C1000C44910B588420AD101218C032046FFF740
:101C200006F92046BDE810400021FFF700B9BE4983
:101C3000884202D101214C0410E0BC49884202D103
:101C400001218C040AE0BA49884202D10121CC0466
:101C500004E0B84988420AD101210C052046FFF76B
:101C6000EFF82046BDE810400021FFF7E9B810BDAD
:101C700030B50446008A85B00D464CF6FF71084029
:101C8000E98801432182A1894EF6F3100140A8881A
:101C90002A8910436A890A431043A081A08A4FF61B
:101CA000FF410840A9890143A1826846FFF764F813
:101CB0009C48844201D1039800E00298A18909045C
:101CC00000EBC00101EB0010296801D5490000E0DC
:101CD0008900B0FBF1F06422B0FBF2F109010B09BD
:101CE0006FF018056B4300EB8300A3891D044FF0D0
:101CF000320306D503EBC000B0FBF2F000F00700A2
:101D000005E003EB0010B0FBF2F000F00F00084319
:101D1000208105B030BD4FF4165101600021818053
:101D2000C18001810C2242818181704710B5038AF4
:101D30004FF2FF0213400A884C8822438C88C988DE
:101D40000C4322431A43028210BD002101804180CE
:101D50008180C18070470029818902D041F40051FF
:101D600001E021F400518181704710B5C1F34213A5
:101D700001F01F040121A140012B07D0022B07D045
:101D80001430002A026805D00A4304E00C30F8E75A
:101D90001030F6E78A43026010BD002A828A01D023
:101DA0000A4300E08A4382827047028A22F00F02CF
:101DB0000282028A0A4302827047828922F4006208
:101DC000828182890A43828170470029818902D0F9
:101DD00041F0020101E021F0020181817047028A95
:101DE00022F020020282028A0A43028270470029FE
:101DF000018A02D041F4804101E021F48041018256
:101E00007047C1F30801818070478088C0F30800E3
:101E10007047818941F0010181817047028BD2B204
:101E20000283028B42EA012101837047028B02F494
:101E30007F420283028B0A43028370470029818A12
:101E400002D041F0200101E021F0200181827047A1
:101E50000029818A02D041F0100101E021F0100137
:101E6000818270470029818A02D041F0080101E097
:101E700021F00801818270470029818902D041F454
:101E8000004101E0C1F30E01818170470029818A80
:101E900002D041F4006101E021F4006181827047C9
:101EA000828A22F004028282828A0A4382827047F6
:101EB0000029818A02D041F0020101E021F00201F3
:101EC000818270470246002012880A4200D0012019
:101ED0007047C9430180704730B501F01F020124EB
:101EE0000025C1F3421304FA02F2012B0FD0022B9A
:101EF0000FD0838A4FEA11210088134204FA01F4BB
:101F000000EA040001D000B10125284630BD8389D4
:101F1000F0E7038AEEE70A0A01219140C9430180F4
:101F20007047000000380140004400400048004075
:101F3000004C004000500040FC4A116801F038019C
:101F4000014311607047F9490A6822F008020A60EB
:101F50000A6802430A607047F4490A6822F01002D6
:101F60000A600A6802430A607047F048F04941601D
:101F7000F04941607047ED48ED494160ED494160ED
:101F80007047EA48016941F0800101617047E74804
:101F9000016941F0800101617047E4490420CA6889
:101FA000D20701D001207047CA68520701D502202C
:101FB0007047C968C906FBD50320704700B50346C2
:101FC000FFF7EBFF03E000BFFFF7E7FF5B1E012811
:101FD00003D0002B00D1052000BD002BF4D1FAE77F
:101FE00070B505464FF430263046FFF7E7FF04286A
:101FF00011D1CE4C206940F002002061656120695A
:1020000040F0400020613046FFF7D8FF216941F6DB
:10201000FD721140216170BD30B54FF43025284666
:10202000FFF7CCFF042810D1C04C206940F0040019
:102030002061206940F0400020612846FFF7BEFF84
:10204000216941F6FB721140216130BD00B50346A4
:10205000FFF7A3FF03E000BFFFF79FFF5B1E012810
:1020600003D0002B00D1052000BD002BF4D1FAE7EE
:1020700030B54FF430252846FFF7E8FF042810D18B
:10208000AA4C206940F004002061206940F0400023
:1020900020612846FFF7DAFF216941F6FB72114003
:1020A000216130BDA1490020C969890700D50120FF
:1020B000704770B5A525FFF7F5FF00B100254FF477
:1020C00030263046FFF77AFF042827D1974C9848EE
:1020D000A0609848A060206940F02000206120693D
:1020E00040F0400020613046FFF768FF41F6EF7690
:1020F00004280ED1206941F6DF7108402061206973
:1021000040F0100020618C4805804FF40050FFF72C
:1021100055FF052802D021693140216170BDF8B515
:10212000064600204FF4005C00900D466046FFF725
:1021300045FF042816D17D4C206940F00100206144
:1021400035806046FFF73AFF41F6FE77042806D156
:10215000B61C280C009630806046FFF72FFF2169DF
:1021600039402161F8BDF0B506464FF400570D46E1
:102170003846FFF723FF04280CD16C4C206940F04F
:102180000100206135803846FFF718FF2169BA1E2B
:1021900011402161F0BDF0B506464FF400570D46E1
:1021A0003846FFF70BFF042813D1604C6048A0604D
:1021B0006048A060206940F01000206135803846FA
:1021C000FFF7FCFE052804D0216941F6EF721140AB
:1021D0002161F0BD2DE9F041C04300F0FF0CC0F3D8
:1021E0000727C0F30746050E4FF400584046FFF797
:1021F000E5FE042837D14D4C4D49A1604D49A16001
:10220000216941F010012161BCF1FF0F08D04A485B
:102210000830A0F800C04046FFF7D0FE04281BD1CC
:10222000FF2F07D044480A3007804046FFF7C6FE1C
:10223000042811D1FF2E07D03F480C3006804046BD
:10224000FFF7BCFE042807D1FF2D07D03A480E3017
:1022500005804046FFF7B2FE052804D0216941F60B
:10226000EF7211402161BDE8F08170B505464FF471
:1022700030263046FFF7A2FE042818D12B4C2C48FC
:10228000A0602C48A060206940F0200020612069F7
:1022900040F0400020613046FFF790FE41F6DF71CC
:1022A000042805D0052802D022690A40226170BDA9
:1022B000206908402061206940F0100020611E481C
:1022C0000DB1002100E0A52101803046FFF776FE28
:1022D0000528ECD0216941F6EF721140216170BDF3
:1022E000F0B5124C0746124816460D46A06011483C
:1022F000A0604FF4005C6046FFF760FE042814D134
:10230000206940F01000206135430B493D43891C92
:1023100045F0F80008806046FFF750FE052804D01D
:10232000216941F6EF7211402161F0BD00200240A9
:1023300023016745AB89EFCD00F8FF1F1C48C0693A
:10234000800870471A48006A7047194900200968D8
:10235000890600D501207047154A0029116901D06E
:10236000014300E081431161704701460020104A9B
:10237000012903D0D2680A4203D17047D169C90745
:10238000FBD0012070470A49C86070470849042003
:10239000CA68D20701D001207047CA68520701D528
:1023A00002207047C968C906FBD5032070470000AA
:1023B000002002401CB500F003FF00F0F4FC484C84
:1023C000204602F0A2FE0AF005FF0AF0F9FE0146DF
:1023D000204602F094FE01F049F94FF4E13000F09C
:1023E000D7F840A00BF0A8FE04F05EF904F0F1FA73
:1023F00000F03FFA09F0D6FD00F048FF06F013F9AF
:102400004FF4FA6000F021FF0AF0DEF90AF09CF9BF
:1024100039494FF478401824088038A0CDE90040AD
:102420002346C822D221002009F088FD36A0CDE93C
:1024300000401823DC22D221822009F07FFD0020F9
:10244000CDE9004033480323D22102684FF4827063
:1024500009F033FD0120009018237322D2214FF49C
:10246000967009F08BFC1CBDFFF7A4FF2AA00BF0AF
:1024700063FE022000F0D1FC03F051F82A4802F07C
:10248000DFFE0021294803F02FF80021284803F03F
:102490002BF80021274803F027F827A00BF04CFE6B
:1024A0000021274803F020F826A00BF045FE22A0CB
:1024B0000BF042FE0021254803F016F821A00BF096
:1024C0003BFE23A00BF038FE0021234803F00CF85C
:1024D00022A00BF031FE00BF03F070F8FCE7000013
:1024E00000FC0308537461727420436F6E74696B4F
:1024F00069204F530D0A0000F40100205670703D12
:10250000303030306D7600004477656C6C20546953
:102510006D653A001C02002068656C6C6F20776F57
:10252000726C642E0D0A000000F700081C010020E8
:102530000C0100202C01002071712E0A0000000007
:102540004C01002077772E0A000000003C0100209B
:1025500041412E0A000000005C01002053532E0A66
:1025600000000000704706480068C00700D000BEA9
:10257000FEE7FEE7FEE7FEE77047704770470000A2
:10258000F0ED00E0034600220321252001F072B89F
:1025900030B5044687B0012144F20400FEF735FC53
:1025A0004FF40070ADF8140018208DF817000320C8
:1025B0004D4D8DF8160005A92846FEF71EFA281580
:1025C000ADF8140004208DF8170005A92846FEF781
:1025D00014FA0020ADF808000194ADF80A00ADF837
:1025E0000C00ADF810000C20404CADF80E0001A915
:1025F0002046FFF73DFB012240F225512046FFF720
:10260000B4FB40212046FFF764FC01212046FFF780
:10261000A2FB0120FFF7B6FF012280212046FFF731
:10262000BCFB211D4FF4FA70324C00900123304A5C
:10263000204600F059FA0322012311460E2001F032
:1026400019F8012202212046FEF7CAF807B030BD72
:1026500070B5264D0446C1B22846FFF7D2FB802153
:102660002846FFF72FFC0028F9D0204670BD10B592
:102670001E4C20212046FFF725FC0028F9D02046DB
:10268000BDE81040FFF7C1BB10B5184C014620460D
:10269000FFF7B7FB40212046FFF714FC0128F9D1D2
:1026A00010BD70B50D46044604E000BF14F8010BE0
:1026B000FFF7EAFF6D1EADB2F8D270BD00F095BA1B
:1026C00070B50A4C40F2255529462046FFF704FC18
:1026D000002808D029462046FFF71DFC2046BDE80B
:1026E0007040FFF792BB70BD000801400038014008
:1026F000FC0200204400024070B5C04D40F225515C
:102700002846FFF7E9FBBE4CC0B12846FFF77DFB2A
:10271000B4F80014C0B2C1F30E0140F2FF3291428E
:102720000CD2B4F80014B4F80024C1F30E016318FD
:10273000491C61F30E02A4F80024187040F22441F1
:102740002846FFF7C9FB01280AD1B4F8000440F479
:102750000040A4F800042846BDE87040FFF755BBD0
:1027600070BD034600220121262000F083BF70B512
:10277000054686B001210420FEF747FB01214804ED
:10278000FEF74CFB0424ADF8144018208DF8170018
:1027900003209C4E8DF8160005A93046FEF72DF952
:1027A0000820ADF814008DF8174005A93046FEF753
:1027B00024F90020ADF80800ADF80A00ADF80C00CF
:1027C000ADF810000C208D4CADF80E00019501A95C
:1027D0002046FFF74DFA012240F225512046FFF72F
:1027E000C4FA012240F224412046FFF7BEFA4021FC
:1027F0002046FFF76EFB01212046FFF7ACFA0120CF
:10280000FFF7AFFFAFF20F107F4901220860802170
:102810002046FFF7C2FA211D4FF4FA707C4C00905D
:1028200001237A4A204600F05FF901231A4603216A
:10283000112000F01FFF012202212046FDF7D0FFEA
:1028400006B070BD70B56D4C40F225552946204646
:10285000FFF742FB00280BD029462046FFF75BFB21
:102860002046FFF7D2FABDE87040C0B20AF0A6BA1F
:1028700070BD10B5614C002240F224412046FFF7A4
:1028800074FA012240F225512046FFF76EFA01202A
:10289000FFF767FFAFF253005B49086010BD0FB44C
:1028A0002DE9FF4106460CAC00250FE05C2915D050
:1028B00000F1010025290B901ED03046FFF7A1FA48
:1028C00080213046FFF7FEFA0028F9D00B980178F6
:1028D0000029EBD1BDE8FF015DF814FB401C0B9013
:1028E00001786E2903D072291BD10D2100E00A2145
:1028F0003046FFF786FA13E00178642914D0732973
:102900000FD180CC09E03046FFF77BFA80213046BA
:10291000FFF7D8FA0028F9D07F1C39780029F2D1C6
:102920000B98401C0B90CBE702CC0027684600298F
:102930001FD007DA4FF02D028DF80020C1F1000101
:1029400000F1010042F210734FF00A0C91FBF3F218
:1029500052EA070E06D002F1300700F8017B02FBB5
:102960001311012793FBFCF3002BEFDC05706F467E
:102970000FE030208DF800008DF80150F7E7304669
:10298000FFF73FFA80213046FFF79CFA0028F9D084
:102990007F1C39780029F2D1C2E770B5174C054683
:1029A00040212046FFF795FA29462046FFF729FAED
:1029B00040212046FFF786FA0128F9D170BD70B595
:1029C0000D46044604E000BF14F8010BFFF7E5FFD5
:1029D0006D1EADB2F8D270BD00F01AB910B5074C3B
:1029E00008212046FFF76EFA10B12046FFF70DFAD6
:1029F00005480068BDE81040004700000044004062
:102A0000F81C00200008014028000020F0040020ED
:102A10008000024002211948FEF75DB808B5022087
:102A2000ADF8000069461548FDF7E7FFFFF7F2FF34
:102A300008BD4FF400711148FEF74DB808B50121EB
:102A40001020FEF7E2F910208DF8030003208DF826
:102A500002004FF40070ADF8000069460748FDF72A
:102A6000CCFFFFF7E6FF08BD02210448FEF735B8AA
:102A70004FF400710148FEF730B80000001001402B
:102A800016484FF47A710068B0FBF1F0B0F1807F26
:102A900012D220F07F414FF0E020491E4161104AE0
:102AA000F02182F8141D0021816107210161016973
:102AB00021F0010101617047FEE701B50948009965
:102AC000016001680029FCD108BD064801680029A1
:102AD00002D00168491E016070470000000000201C
:102AE0000FE000E0400000202DE9F0418CB00E46E0
:102AF000804601211C4615460846129FFEF77CF9C8
:102B000001210220FEF778F94046FDF7C7FDCDE927
:102B1000006500200397012C15D04021CDE9041059
:102B200002904FF48051CDE90801069007900A9079
:102B300069464046FDF71FFE01214046FDF745FE70
:102B40000CB0BDE8F081102102918021CDE9040193
:102B5000E7E770B50C4605460021FDF736FE214635
:102B60002846FDF745FE2846BDE870400121FDF7E7
:102B70002CBE01467548ECE7014674483C30E8E756
:102B8000014672482838E4E701467148E1E710B58C
:102B900004000AD0A06818B10CF04EF80020A06024
:102BA0002046BDE810400CF047B810BD2DE9F047B5
:102BB00005460068984616468946002813D02846E0
:102BC0000AF09CFA8788044601683A4648460AF0AB
:102BD00009FBE96820468847012030703846C44622
:102BE000BDE8F0476047BDE8F08710B5594C0A468C
:102BF000014660680AF06CFA2078002807D1AFF22D
:102C00008D0322466068BDE810405349CEE710BDF1
:102C100010B5504C0A460146A0680AF059FA60788F
:102C2000002807D1AFF2AF03621CA068BDE81040D6
:102C30004A49BBE710BD10B5464C0A460146E0685C
:102C40000AF046FAA078002807D1AFF2CB03A21C05
:102C5000E068BDE810404249A8E710BD10B53D4C02
:102C60000A46014620690AF033FAE078002807D1C5
:102C7000AFF2EB03E21C2069BDE81040394995E74B
:102C800010BD70B54FF400552846FDF7B6FD01287C
:102C900010D1304C002020702846FDF7BCFD606844
:102CA0000168002906D0AFF235132246BDE8704016
:102CB00029497BE770BD70B54FF000752846FDF7D8
:102CC0009CFD012810D1234C002060702846FDF7A0
:102CD000A2FDA0680168002906D0AFF26313621C50
:102CE000BDE870401D4961E770BD10B52020FDF7BB
:102CF00084FD012810D1174C0020A0702020FDF782
:102D00008AFDE0680168002906D0AFF28B13A21C8F
:102D1000BDE81040124949E710BD70B5124D284674
:102D2000FDF76BFD012810D10A4C0020E070284609
:102D3000FDF771FD20690168002906D0AFF2B713D5
:102D4000E21CBDE87040074930E770BD4400024016
:102D50005804024044000020FC020020F00400203F
:102D6000E4060020D80800200000021010B51D4C19
:102D70002068401C206002F02AFB30B102F02DFBDD
:102D80002168884201D802F08EFAA068401EA06037
:102D900005D16068401C60604FF47A70A060BDE8A7
:102DA0001040FFF792BE10484FF47A710068B0FBF4
:102DB000F1F0B0F1807F0ED220F07F414FF0E020A3
:102DC000491E4161094AF02182F8141D00218161E8
:102DD000072101617047FEE702480068704701481B
:102DE0004068704798000020000000200FE000E0DD
:102DF00070B504460D4645F25550FDF7DDFE204600
:102E0000FDF7DDFE2846FDF7DDFEFDF7DEFEBDE841
:102E10007040FDF7DFBEFDF7D8BE9D21414306207F
:102E2000E6E7000010B586B0012141F20400FDF78D
:102E3000ECFFDD4C01212046FEF70FF9F020ADF844
:102E4000140018208DF8170003208DF8160005A92E
:102E5000D648FDF7D2FD0021ADF800104FF4827086
:102E6000ADF80200ADF804100220ADF80600012014
:102E7000ADF808000820ADF80C000720ADF80A10E6
:102E8000ADF80E10ADF8100069462046FEF730F898
:102E900001231A460321232000F0ECFB00227121BC
:102EA0002046FEF7B6F8002250212046FEF7B1F882
:102EB000002260212046FEF7ACF801212046FEF7F3
:102EC00094F871212046FEF71BF960212046FEF799
:102ED00017F906B010BDF0B587B001210920FDF744
:102EE00094FF01218E033046FDF798FF4FF43040E8
:102EF000ADF814001824AE4F8DF8174003258DF857
:102F0000165005A93846FDF778FDADF81460482045
:102F10008DF817008DF8165005A93846FDF76DFDA0
:102F2000A44D01212846FEF798F80021ADF80010C5
:102F30004FF48270ADF80200ADF80410ADF808103F
:102F4000ADF80C400720ADF80610ADF80A10ADF84A
:102F50000E10ADF8100069462846FDF7C9FF0121A3
:102F60002846FEF742F871212846FEF7C9F860218D
:102F70002846FEF7C5F807B0F0BD70B586B0012150
:102F80001D20FDF742FF01218B48FDF7C5FD012102
:102F9000CC032046FDF742FF3820ADF8140003258E
:102FA0008DF816501820824E8DF8170005A930466E
:102FB000FDF723FD38213046FDF78DFDADF81440B7
:102FC0008DF816501020794D8DF8170005A9284668
:102FD000FDF713FD21462846FDF77DFD0020ADF8E5
:102FE00000004FF48271ADF80210ADF80800ADF8A2
:102FF0000400A111ADF80C00ADF80600ADF80E000C
:1030000007206E4CADF80A10ADF810006946204656
:10301000FDF76EFF01212046FDF7E7FF06B070BD0A
:1030200010B5664C01462046FEF707F802212046FF
:10303000FEF747F80028F9D010BD6048FDF7FFBF44
:103040002DE9F041074600244FF4FA75564E02E090
:10305000641CAC420EDC02213046FEF732F8002838
:10306000F6D039463046FDF7E8FF002405E0641C41
:10307000AC4202DD0020BDE8F08101213046FEF7C0
:1030800020F80028F3D03046FDF7D9FFC0B2F2E7B0
:103090002DE9F041074600244FF4FA75454E02E051
:1030A000641CAC420EDC02213046FEF70AF8002810
:1030B000F6D039463046FDF7C0FF002404E0641C1A
:1030C000AC4201DD0020D6E701213046FDF7F9FFD3
:1030D0000028F4D03046FDF7B2FFC0B2CBE72DE9AF
:1030E000F041074600244FF4FA75344E02E0641CA8
:1030F000AC420EDC02213046FDF7E3FF0028F6D09B
:1031000039463046FDF799FF002404E0641CAC42C8
:1031100001DD0020AFE701213046FDF7D2FF002896
:10312000F4D03046FDF78BFFC0B2A4E710B51E4CBB
:1031300071212046FDF7CFFF012803D1FF21204652
:10314000FDF77BFF60212046FDF7C5FF012802D176
:103150002046FDF774FF71212046FDF7D1FF204680
:10316000BDE810406021FDF7CBBF10B5114C7121B7
:103170002046FDF7B0FF012803D1FF212046FDF7CF
:103180005CFF60212046FDF7A6FF012802D1204602
:10319000FDF755FF71212046FDF7B2FF2046BDE83F
:1031A00010406021FDF7ACBF003001400008014035
:1031B000000C01400038004000023000003C00409C
:1031C00010B56FF00400FDF7BEF82C482C490068DC
:1031D000B0FBF1F0C1B22B4801EB41020170C2EB30
:1031E000C1114FF6FF7202EAC101418010BD2549AD
:1031F000097848434FF0E021486100228A6108695C
:1032000040F0010008610869C30701D0C003FAD586
:10321000086920F0010008618A61704719494988EE
:1032200048434FF0E021486100228A61086940F07C
:10323000010008610869C30701D0C003FAD5086915
:1032400020F0010008618A6170470C4941F27072F8
:103250000968B1FBF2F14143002000E0401C8842C4
:10326000FCD370470549084A0968B1FBF2F14143B4
:10327000002000E0401C8842FCD370470000002082
:1032800000127A00A4000020808D5B0030B587B06A
:1032900001214FF40170FDF7B8FD4FF40040FDF738
:1032A0004AFD0220ADF8140000248DF8174005A94E
:1032B0004648FDF7A2FB464D2846FDF757F84FF468
:1032C0006020CDE9020401208DF804408DF8100043
:1032D00000948DF8054069462846FDF763F8012102
:1032E0002846FDF787F82846FDF7A1F82C4620462A
:1032F000FDF7A2F80028FAD12046FDF7A4F82046F1
:10330000FDF7A6F80028FAD107B030BD10B5304C53
:103310000146072301222046FDF7C4F8012120467B
:10332000FDF79DF802212046FDF790F90028F9D01D
:103330002046BDE81040FDF7F9B82DE9F041002521
:103340000E4607462C4608E03846FFF7DFFF0544E7
:103350000520FFF77AFF641CE4B2B442F4D3B5FB56
:10336000F6F080B2BDE8F08170B500252C46102043
:10337000FFF7CCFF284485B20120FFF74FFF641C04
:10338000E4B2142CF3D31420B5FBF0F00AF06EFA7B
:103390004FF066320F4B0AF072F90AF003FB0AF0A5
:1033A000BEFA0D4A0D4B0AF067F90D4A0D4B0AF0B3
:1033B000D8F900220C4B0AF0BBF80AF0F3FA0B49DB
:1033C0000AF078F8BDE870400AF05DBA00080140E4
:1033D0000024014066664A3FE17A14AE47E1F63FB9
:1033E00022FDF675E09C713F00003940000020414D
:1033F0007FB50C46054601210846FDF70FFDADF8E7
:103400000450ADF8004000244FF08045ADF8064070
:10341000ADF8024069462846FDF718FF0122412118
:103420002846FEF7D1F91C208DF80C008DF80D40D0
:1034300003208DF80E0001208DF80F0003A8FCF783
:1034400042FF7FBD70B50C46054688B001210420BF
:10345000FDF7DBFC01210820FDF7E0FCADF80C4096
:103460000024424EADF81050ADF81240ADF80E40B9
:1034700003A93046FDF7EAFE0125ADF80040ADF89E
:103480000450ADF80240ADF80640ADF8084069467A
:103490003046FEF793F832208DF8180002218DF89F
:1034A00019108DF81A108DF81B5006A8FCF70BFFA9
:1034B000012203213046FEF787F901213046FEF74D
:1034C0006EF908B070BD10B501218C072046FEF7DB
:1034D00090FB002805D02046BDE810400121FEF7F2
:1034E00094BB10BD70B5224C204D2078000636D418
:1034F00001212846FEF77DFB012807D121684806F7
:1035000004D5C843800608D0491C21600221284602
:10351000FEF76FFB012807D021E041F0800020601A
:103520004FF6FF706060F1E72068410608D540F073
:10353000800020602846FEF745FB002160600BE01C
:1035400000202060014660602846FEF726FB2068C8
:10355000022140F0400020602846FEF769FA284624
:10356000BDE870400321FEF750BB0000000C004096
:10357000A80000207FB50C46054601210420FDF778
:103580004DFC01210820FDF740FC4020ADF80C0067
:103590002820324E8DF80F0003A93046FDF72DFA92
:1035A00040213046FDF799FAADF80450ADF80040DF
:1035B00000242B4DADF80640ADF802406946284680
:1035C000FDF744FE274901200C804C808880CC8088
:1035D0000F2008812846FDF7F1FF00220123114644
:1035E0001E2000F047F8012202212846FEF7ECF8E1
:1035F00001212846FEF7D3F87FBD70B51A4C20781C
:10360000000629D4164D02212846FEF7F2FA0028BA
:1036100022D002212846FEF7F8FA2078400611D57C
:1036200000262846A660FEF7CDFAA0806188884271
:1036300001D9401AA060267000212846BDE87040DC
:10364000FEF7F6B92846FEF7BDFA60802078022121
:1036500040F040002070F0E770BD0000000C014019
:1036600000080040CC0A0020B00000204FF4A06009
:10367000FCF724BE08B58DF800008DF801108DF818
:1036800002208DF803306846FCF71DFE08BD0000DF
:10369000F8488068704770B505000C4601D00CB141
:1036A00008E009B1012070BD002070BD0028FCD0E9
:1036B000641C6D1C287809F07DFD0646207809F011
:1036C00079FD86422878F1D009F074FD054620780E
:1036D00009F070FD281A70BDE64910B1026822B9E0
:1036E00002E0E548086003E0E34A0A60406800B988
:1036F000E2484860704770B50446DE4E19E0A08984
:103700002568C0050AD4A06820B1FFF7F4FFA0899E
:10371000C00503D4206908B171688847A089800575
:1037200003D4206A08B171688847716820468847C9
:103730002C46002CE3D170BD2DE9F34F002583B05A
:103740000C46CF490120CDE90051029020782E4649
:103750002F46A846A9462D2804D10020C949641C3B
:10376000CDE900012078302800D1641C2078313860
:10377000082816D814F8010B30380AF066F882468B
:103780008B460022C04B2846314609F078FF52464E
:103790005B4609F0CDFE054620780E4630380928F4
:1037A000E8D920782E2824D16078302841D33928D0
:1037B0003FD8641C14F8010B30380AF046F88246F2
:1037C0008B460022B04B2846314609F058FF52463E
:1037D0005B4609F0ADFE05460E460022A84B384672
:1037E000414609F046FF07462078884630380928C8
:1037F000E0D92078652801D045281AD114F8010FA6
:103800002B2802D02D2810D000E0641C6FF02F016F
:103810002078A0F13002092A0BD809EB890201EBCC
:10382000420200EB0209641CF2E74FF0FF30029005
:10383000EBE7029909FB01F00AF007F83A46434624
:1038400009F076FE02460B4600208F490BF052FA33
:1038500007468846DDE900012A46334609F00FFF96
:103860003A46434609F00BFF039AC2E906010AF003
:1038700037F80399486103980321C16005B02046D9
:10388000BDE8F08F2DE9F041040009D023683BB179
:10389000A26850186168814204DB9818BDE8F08185
:1038A0000020FBE7401E40EA600040EAA00040EA3A
:1038B0002010704F40EA202040EA2046761C3968EC
:1038C0003046884705000BD0D4E9001209F08AFC85
:1038D000796820688847C4E90056A0682844DDE775
:1038E000796820688847002060602060D8E72DE96B
:1038F000F04707460E46D7E906450022DFF87481F7
:10390000DFF888911346204629460AF01BF80FD1AC
:1039100026B102213046FFF7B5FF03E0D8F80010CA
:1039200002208847060071D059A0008830806DE0E1
:10393000786909F08AFF22462B4609F09AFE21F0A9
:10394000004100224B4609F0FDFF1ED8514A524B60
:103950002046294609F0F6FF17D800224F4B204693
:1039600029460AF007F810D826B115213046FFF78E
:1039700089FF03E0D8F8001015208847060045D0DD
:1039800047A17A690AF0E8FB40E026B140213046C1
:10399000FFF778FF03E0D8F80010402088470600C2
:1039A00034D0204629460BF0D9F822462B4609F0A0
:1039B00060FE21F0004100224B4609F0C3FF0BD806
:1039C000204625F00041374A374B09F0BBFF03D2B0
:1039D00022462B4635A116E025F0004120460F4631
:1039E000344A354B09F0AEFF06D320463946002253
:1039F000324B09F0BFFF03D222462B4630A102E032
:103A000022462B462FA130460AF0A6FB3046BDE8E1
:103A1000F0870178A1F13002092A01D811460AE0A5
:103A2000A1F14102052A01D8373904E0A1F1610270
:103A3000052A6AD857390A0110F8011FA1F130038D
:103A4000092B01D8303A0AE0A1F14103052B01D836
:103A5000373A04E0A1F16103052B56D8573A1144D7
:103A60000A0110F8011FA1F13003092B2CD8303ABC
:103A700035E00000BC00002089EC000839EC0008AB
:103A80000000F03F0000F0BF000024400000B03C08
:103A9000300000000000C0FFFFFFDF410000E0C178
:103AA0002564000044F3C2E4E4E9634C252E30664B
:103AB000000000008DEDB5A0F7C6B03E65CDCD414C
:103AC0002565000025660000A1F14103052B01D802
:103AD000373A04E0A1F16103052B16D8573A114497
:103AE00040780901A0F13002092A01D8303904E0F8
:103AF000A0F14102052A02D8373908447047A0F1E5
:103B00006102052A01D85739F7E7002070472DE9EF
:103B1000F0470C460646481C22780021F84B222A22
:103B200006D000209C6072E7401C5C2A00D1401C3B
:103B30000278222A02D00AB1491CF5D1481C196822
:103B400088470500EFD0601C2C464FF4806788E062
:103B50005C2903D004F8011B401C82E000F101083D
:103B60004078722814D006DC622809D0662809D073
:103B70006E2808D10AE074280CD0752803D10BE018
:103B8000082000E00C2004F8010B68E00A20FAE7A6
:103B90000D20F8E70920F6E708F10100FFF739FFEB
:103BA0008146A0F55C4008F10408B84257D3B9F14A
:103BB000000F54D0A9F55840B84217D298F8010028
:103BC0005C284CD198F80200752848D108F1030010
:103BD000FFF71FFFA0F55C4108F10608B9423ED28D
:103BE000C9F3090161F39F2000F580390420B9F180
:103BF000800F02D20120641C2AE0B9F5006F02D2C6
:103C00000220A41C06E0B9F5803F02D20320E41C88
:103C10000EE0241D022813D0032809D004281DD14A
:103C200009F0BF0141F0800104F8011D4FEA991924
:103C300009F0BF0141F0800104F8011D4FEA991914
:103C400009F0BF0141F0800104F8011D4FEA991904
:103C5000AC49095C41EA090104F8011D044408F17A
:103C600001000178222902D000297FF471AF0021E0
:103C700021700178222900D1401C0421C6E90315D6
:103C8000C5E62DE9F05F0F4600250446294609E008
:103C9000531E1F2B14D3222A12D05C2A10D00022CC
:103CA0001143401C0278002AF2D1DFF85492934667
:103CB0004FF0220AD9F8002021B1E4B1264636E0BF
:103CC0000122EDE7061B27B1F11C3846FFF7DAFDAC
:103CD00001E0F01C9047050042D080F800A0681C6D
:103CE000D0460746214609F0D2FAB91907F80680EE
:103CF00081F801B060E027B103213846FFF7C2FD2B
:103D000001E00320904704002AD07FA109F0BFFA08
:103D10002046BDE8F09F41467CA009F099FA08B121
:103D20006D1C03E0B8F1200F00D26D1D761C3078B9
:103D30008046012801D16D1CEDD127B1E91C384620
:103D4000FFF7A0FD03E0D9F80010E81C8847050044
:103D500006D080F800A05646681C4FF05C0825E0AD
:103D60000020D6E71F2907D9222905D05C2903D0D6
:103D700000F8011B641C19E000F8018B14F8012BFA
:103D8000414607460C2A20D006DC082A1BD0092A07
:103D900021D00A2A06D11AE00D2A1AD0222A0FD0E1
:103DA0005C2A0BD05BA10AF0D7F9781D2178002995
:103DB000D8D1067080F801B02846AAE7397000E033
:103DC0003E70401CF2E7622006E0662004E06E20B0
:103DD00002E0722000E074203870781CE6E72DE9DC
:103DE000F04105460878464E7B2801D0B16032E0AC
:103DF0000620E860481C00F07DFE074600787D281C
:103E000013D000F05AFE0400A8600FD0384600F02E
:103E100071FE01462046FFF77AFE00F06BFE002897
:103E200004D02169002721622BE0781C36E5B060C0
:103E300011E0401C00F05EFE0146204600F028F82C
:103E400000F058FE0500F1D028782C2805D02878FD
:103E50007D281BD0B560002020E500F02EFE002854
:103E6000E4D0206044600446681C00F043FE014634
:103E70002046FFF74CFE00F03DFE0028D6D0216919
:103E80002162276101783A29D3D0D0E7681C05E583
:103E900070B50C0005461FD0042220A1204609F071
:103EA000FFF9D8B105221FA1204609F0F9F9C0B1E8
:103EB00004221EA1204609F0F3F9B0B1207822288F
:103EC00018D02D2803D0A0F13001092932D821467D
:103ED0002846BDE870402FE4002070BD0220E86055
:103EE00006E00020E860601D70BD0120E8606861A8
:103EF000201D70BD21462846BDE8704007E6000041
:103F0000BC000020F8F6000822220000225C080C09
:103F10000A0D090075253034780000006E756C6C50
:103F20000000000066616C736500000074727565C6
:103F3000000000005B2804D07B2808D0FA48846089
:103F4000CAE721462846BDE8704000F0DDBD2146A5
:103F50002846BDE8704042E72DE9F04190460E4604
:103F6000044600F0AAFDF04F05004FF00000B860D5
:103F700015D0204600F0BEFD01462846FFF788FF19
:103F800004000ED0B8F1000F0FD0204600F0B2FDB3
:103F90000446007848B12846FFF7ADFBBC6000201E
:103FA0007CE42846FFF7A7FBF9E706B13460284612
:103FB00074E400221146CFE72DE9FE4F8246072028
:103FC0004FF0000B0090DAF8080015460C461F462B
:103FD0005E46CDF808B001E00068761C0028FBD1F1
:103FE000D1490A682EB1002F7ED0BE6845B30221A8
:103FF00027E03FB10DB1211D00E003211846FFF776
:1040000041FC04E00DB1201D00E0032090470100B9
:104010006BD07B200870481C5DB10A2200F8012B90
:1040200000220923641E02E000F8013B521CA24258
:10403000FADB7D220270002242700846BDE8FE8F46
:1040400001218846491C1846FFF71CFC0028F5D0C2
:104050007B2100F8011B15B10A2100F8011B4FF06C
:10406000000980F80090B968641C01EB0800B86092
:10407000DAF8088060E08DB121463846FFF702FC8F
:104080000028DBD00021092203E000BF00F8012B4B
:10409000491CA142FADBB8682044B8603946D8F818
:1040A0002000FFF7EEFD384600F013FDB8600DB1BB
:1040B000022000E00120824601463846FFF7E2FB7D
:1040C0000028BBD03A2100F8011B0DB10921017075
:1040D000B9683B4601EB0A00B8602A4621464046D3
:1040E00000F007FA384601E045E062E000F0F1FC3C
:1040F000B8600DB1012100E00021D8F8000000B146
:10410000012001EB000A0AF101013846FFF7BAFB72
:10411000002893D0D8F8001011B12C2100F8011B11
:1041200015B10A2100F8011B80F80090B96801EB75
:104130000A00B860D8F80080B8F1000F9BD10DB12B
:10414000611C00E002213846FFF79CFB002898D054
:104150004DB100260921641E03E000BF00F8011BD9
:10416000761CA642FADB7D21017080F80190386848
:1041700000EB060BD5E0B000074690475FEA000968
:1041800017D069493846096888475FEA000812D0A5
:104190003946484609F03FF83946404609F03BF8B1
:1041A000DAF8087004F1010A8DB3009850440090C9
:1041B00031E0002042E75C494846496858E0002168
:1041C000386AFFF75EFD019048F82B0000232A466D
:1041D0005146384600F08DF9014649F82B00019808
:1041E0000BF1010BA0B199B1084609F03BF8044668
:1041F000019809F037F8211815B10AF1020000E022
:104200000020014400980844801C009002E002E075
:10421000012002903F68002FD1D1029898B94249FD
:104220000098096888475FEA000B0CD07B218BF867
:1042300000100BF1010415B10A2004F8010B002055
:104240002070074654E00024374D0AE058F8240057
:1042500008B16968884759F8240008B16968884737
:10426000641CB442F2DB6968404688476968484686
:1042700088479EE73DB10020092202E004F8012BA7
:10428000401C5045FADB58F8270008F0EBFF00907F
:10429000024658F82710204608F0A4FF009804446E
:1042A0003A2004F8010B15B1092004F8010B59F864
:1042B0002710204608F0EBFF59F8270008F0D2FF3E
:1042C0000444701E874202D02C2004F8010B15B163
:1042D0000A2004F8010B144900202070496858F89E
:1042E00027008847104959F82700496888477F1CEC
:1042F000B742BFDB0C4E404671688847716848463C
:10430000884755B100220921AAF1010003E000BF4E
:1043100004F8011B521C8242FADB7D202070002031
:10432000607058468AE60000BC0000202DE9FF4F6F
:104330000746052081B0002500901E46A8462C4661
:10434000B86801E000686D1C0028FBD1F94A1168CB
:1043500085B18246002E55D001211846B568FFF779
:1043600091FA002814D05B210170B068401CB06045
:10437000BC6829E026B103211846FFF783FA01E063
:1043800003208847040002D0EBA108F080FF2046FC
:1043900005B0BDE8F08F039808B1022700E00127BF
:1043A000791C3046FFF76EFA0028F1D02C2100F876
:1043B000011B039911B1202100F8011B80F800A016
:1043C000B0683844B060246874B1DDE90212334645
:1043D0002046491C00F08DF8304600F07AFBB060B2
:1043E00020680028EFD0D6E702213046FFF74AFACE
:1043F0000028CDD05D21017080F801A0306800EB6D
:10440000050874E0A8008146934688470600BFD09F
:10441000494608F000FFBF6818E0DDE902120023FA
:104420003846491C00F065F846F8280008F10108F4
:1044300050B108F017FF039901B101210144009820
:104440000844801C009000E001243F6817B1002C54
:10445000E3D012E08CB9DBF80010009888475FEADF
:1044600000080AD05B2088F80000D14688F801A037
:1044700008F101040027DA462FE000245F4605E03A
:1044800056F8240008B179688847641CAC42F7DB11
:1044900079683046884700207AE700BF56F8270041
:1044A00008F0E0FE8346024656F82710204608F042
:1044B00099FE681E5C44874209D02C2004F8010B49
:1044C000039810B1202004F8010B84F80090DAF86A
:1044D000041056F8270088477F1CAF42DEDBDAF86D
:1044E0000410304688475D20207084F801904046D3
:1044F0004EE770B5002400284ED07BB3057B072D16
:1045000049D2DFE805F00D180421232528000521F4
:104510001846FFF7B7F904003DD0AFF2006107E09D
:1045200006211846FFF7AEF9040034D0AFF20C6153
:1045300008F0ADFE2FE005211846FFF7A3F90400AF
:1045400029D0AFF21861F3E719461DE019461FE0C4
:10455000FFF7ECFE1EE0FFF72FFD1BE0FFE7037BFC
:10456000072B18D2DFE803F0070C040F13191B0008
:10457000AFF2586001E0AFF2546000F08DFA09E04C
:10458000AFF25860F9E70021FFF7B1F902E000212E
:1045900000F0ADFA0446204670BD0023D8E70023A2
:1045A000D9E7002301221946A3E700231A4619463A
:1045B0009FE7FEB506460C4608465E491546096863
:1045C0008847CDE900040020014602906B462A4648
:1045D0003046FFF78EFFFEBD8168002001E00968CC
:1045E000401C0029FBD17047806801E00068491E2B
:1045F000002801D00029F9DC704770B50D468468A9
:1046000000E024682CB12946206AFFF744F800280E
:10461000F7D1204670BD70B5054600F04EFA040093
:104620000DD02822294608F0DDFD00202062E16837
:10463000606041F48071E1602060204670BD002020
:1046400070BD8268002901D01AB9816070470200EC
:1046500002D010680028FAD111604A60704770B526
:1046600014000D4606460DD0206A10B13149496844
:104670008847284600F010FA206221463046BDE8FF
:104680007040DEE770BD70B514000D46064611D0CF
:10469000A089800504D4206A10B12649496888475A
:1046A0002562E068214640F40070E0603046BDE8D5
:1046B0007040C6E770BD10B504460846FFF7ABFF73
:1046C00001462046BDE81040BBE770B505460C46E4
:1046D0001046FFF7A0FF024621462846BDE870407D
:1046E000BDE70246806801E00068491E002811D03D
:1046F0000029F9DC416809B103680B60016809B160
:1047000043684B609168814201D10168916000214A
:1047100001604160704710B5FFF7E3FFBDE810404E
:10472000FEF7E9BF2DE9F0410F46064600258468F3
:1047300006E00000BC0000205B5D000024686D1CEA
:1047400054B13946206AFEF7A6FF0028F6D1294663
:104750003046BDE8F041C4E7002021E410B5FFF782
:10476000E1FFBDE81040FEF7C6BF0B46816801E0DF
:1047700009685B1E51B1002BFADC11604B68536075
:104780004A6083688B4203D182607047114658E7C4
:1047900050680260704730B40346806801E00068EA
:1047A000491E002814D00029F9DC01681160446812
:1047B000546001B14A609968814201D19A6001E078
:1047C00051680A6000214160016030BCFEF793BF70
:1047D00030BC70472DE9F041164688460746002553
:1047E000846801E024686D1C002CB6D04146206A24
:1047F000FEF751FF0028F5D1404600F04DF9306238
:10480000324629463846BDE8F041C4E7A5E710B571
:1048100000F053F9002801D00221C16010BD10B58D
:1048200000F04BF9002801D00121C16010BD10B586
:1048300000F043F9002801D00021C16010BD10B57F
:10484000044600F03AF9002804D00CB1012100E040
:104850000021C16010BD70B505460E4600F02DF96F
:10486000040008D00320E060C4E90656284631461B
:1048700009F036F86061204670BD70B5054600F05D
:104880001CF9040005D00420E060284600F004F97B
:104890002061204670BD10B500F00FF9002801D04E
:1048A0000521C16010BD10B500F007F9002801D046
:1048B0000621C16010BD2DE9F0410F46804600245D
:1048C000FFF7E9FF064600250BE000BF58F825007A
:1048D00008F0BBFFFFF7BFFF45B12060446004460E
:1048E0006D1C0EB1BD42F1DB304636E7B060F6E735
:1048F0002DE9F0410F4680460024FFF7CCFF064625
:1049000000250AE058F8250009F009F8FFF7A3FF91
:1049100045B12060446004466D1C0EB1BD42F1DB20
:1049200030461AE7B060F6E72DE9F0410F468046C1
:104930000024FFF7B0FF064600250AE008EBC5019A
:10494000D1E90001FFF787FF45B1206044600446CC
:104950006D1C0EB1BD42F1DB3046FEE6B060F6E7FD
:104960002DE9F0410F4680460024FFF794FF0646EC
:10497000002508E058F82500FFF77FFF45B12060CB
:10498000446004466D1C0EB1BD42F3DB3046E4E6E4
:10499000B060F6E72DE9F0410F4605004FF0000644
:1049A0001CD000F08AF8040019D0E86820F4807068
:1049B000E06068696061D5E90601C4E9060128691B
:1049C00018B100F069F8206198B1286A18B100F0B8
:1049D00063F8206268B1AFB1AD6811E00020BCE6B9
:1049E00001212846FFF7D6FF18B136B13060466086
:1049F00004E02046FEF77FFEF0E7A0602D68064643
:104A0000002DEDD12046A8E601461AE0D2B2202AB8
:104A10000BD0092A09D00D2A07D00A2A05D02F2A3F
:104A200005D0D3B2222B23D007E0401C09E0427806
:104A30002F2A0CD0D2B22A2A10D010F8012B01F85C
:104A4000012B0278002AE1D100200870704710F88D
:104A5000012F002AF8D00A2AF9D1D7E710F8012F40
:104A600022B12A2AFAD142782F2AF7D1801CE8E70E
:104A700001F8012B401C08E05C2A02D101F8012B4F
:104A8000401C10F8012B01F8012B02780AB1222AF0
:104A9000F2D101F8012BC8E770B5064608F0E2FB39
:104AA0003649401C044609688847050004D0224660
:104AB000314608F097FB284670BD304910B50968AB
:104AC00028208847040002D0282108F0A4FB2046B3
:104AD00010BD10B5040008D0206830B1A1680844AA
:104AE00008F0C0FBA168084410BD002010BD00699B
:104AF000FFF7C7B800E0401C002804D00178002967
:104B000001D02029F7D970472DE9F04104460878F3
:104B10001A4E5B2801D0B1602BE00520E060481CF4
:104B2000FFF7E8FF074600785D2806D0FFF7C5FFCE
:104B30000500A06002D038460AE0781C0DE600BFF0
:104B4000FFF7BBFF0028F9D0286045600546601CD0
:104B5000FFF7D0FF01462846FFF79AF9FFF7CAFF93
:104B6000040006D020782C28EAD020785D2802D0D6
:104B7000B4600020F1E5601CEFE50000BC000020FF
:104B80000346012203212720FEF774BD30B50446F9
:104B900087B001210820FCF738F901218804FCF7CF
:104BA0003DF94FF48060ADF8140018208DF817001F
:104BB0000320514D8DF8160005A92846FBF71DFF6F
:104BC000E814ADF8140004208DF8170005A9284654
:104BD000FBF713FF0020ADF808000194ADF80A00C0
:104BE000ADF80C00ADF810000C20444CADF80E00F0
:104BF00001A92046FDF73CF8012240F2255120464C
:104C0000FDF7B3F801212046FDF7A5F80120FFF7D5
:104C1000B7FF012280212046FDF7BFF8211D4FF488
:104C2000FA70384C00900123354A2046FDF75CFFAE
:104C300001231A4603210C20FEF71CFD012202214C
:104C40002046FBF7CDFD07B030BD7FB52B4D009062
:104C50000020ADF80400ADF80600ADF80800ADF88E
:104C60000C000C200C46ADF80A0069462846FCF7FB
:104C7000FFFF224640F225512846FDF776F8012134
:104C80002846FDF768F87FBD70B51C4C05464021ED
:104C90002046FDF71EF929462046FDF7B2F84021CF
:104CA0002046FDF70FF90128F9D170BD70B50D460A
:104CB000044603E014F8010BFFF7E6FF6D1EADB2EA
:104CC000F8D270BDFDF7B7BF70B50C4C40F225555A
:104CD00029462046FDF700F900280BD0294620463A
:104CE000FDF719F92046FDF790F8BDE87040C0B215
:104CF00008F064B870BD0000000C0140004800409E
:104D0000E40600201C000240032203461146342022
:104D1000FEF7B0BC30B5044687B001211020FCF787
:104D200074F80121C804FCF779F84FF48060ADF8FD
:104D3000140018208DF8170003204F4D8DF8160031
:104D400005A92846FBF759FEE814ADF81400042025
:104D50008DF8170005A92846FBF74FFE0020ADF897
:104D600008000194ADF80A00ADF80C00ADF8100091
:104D70000C20424CADF80E0001A92046FCF778FF4C
:104D8000012240F225512046FCF7EFFF0121204689
:104D9000FCF7E1FF0120FFF7B7FF01228021204649
:104DA000FCF7FBFF211D4FF4FA70364C00900123F5
:104DB000334A2046FDF798FE0322012311463B208B
:104DC000FEF758FC012202212046FBF709FD07B03F
:104DD00030BD7FB5294D00900020ADF80400ADF83E
:104DE0000600ADF80800ADF80C000C200C46ADF83C
:104DF0000A0069462846FCF73BFF224640F225514F
:104E00002846FCF7B2FF01212846FCF7A4FF7FBD2E
:104E100070B51A4C054640212046FDF75AF8294640
:104E20002046FCF7EEFF40212046FDF74BF8012815
:104E3000F9D170BD70B50D46044603E014F8010BBE
:104E4000FFF7E6FF6D1EADB2F8D270BDFDF706BFED
:104E500070B50A4C40F2255529462046FDF73CF82E
:104E6000002808D029462046FDF755F82046BDE821
:104E70007040FCF7CABF70BD00100140004C0040FC
:104E8000D80800205804024003220346114635206A
:104E9000FEF7F0BB10B5044686B001211020FBF7E9
:104EA000B4FF01212020FBF7B0FF01210805FBF72B
:104EB000B5FF4FF48050ADF8100018208DF81300A6
:104EC00003208DF8120004A94148FBF796FD042049
:104ED000ADF810008DF8130004A93E48FBF78DFDD6
:104EE0000020ADF804000094ADF80600ADF808000D
:104EF000ADF80C000C20384CADF80A00694620468D
:104F0000FCF7B6FE012240F225512046FCF72DFFAA
:104F100001212046FCF71FFF0120FFF7B5FF01220A
:104F200080212046FCF739FF06B010BD7FB52A4D21
:104F300000900020ADF80400ADF80600ADF80800C0
:104F4000ADF80C000C200C46ADF80A006946284666
:104F5000FCF78EFE224640F225512846FCF705FF5D
:104F600001212846FCF7F7FE7FBD70B51A4C0546B7
:104F700040212046FCF7ADFF29462046FCF741FFC3
:104F800040212046FCF79EFF0128F9D170BD70B585
:104F90000D46044604E000BF14F8010BFFF7E5FFDF
:104FA0006D1EADB2F8D270BD70B50B4C40F22555F8
:104FB00029462046FCF790FF002808D029462046C5
:104FC000FCF7A9FF2046BDE87040FCF71EBF70BD8E
:104FD000001001400014014000500040008870475C
:104FE0002DE9F04116460F460546002408E000BFB3
:104FF00037F814102846FDF7B6F8641CA4B2AD1CAF
:10500000B442F5D3BDE8F08110B5002306E000BF3F
:1050100030F8024B21F813405B1C9BB29342F7D34C
:1050200010BD2DE9F05FA0F1006415468A46834665
:10503000B4F5802F53D2FCF798FFE70AC4F3490672
:10504000C6F58064A54200D82C46DFF8CC9000BF9E
:105050004FF0006000EBC72080464FF480622E497D
:10506000FFF7D2FF00204FF6FF7106E0331839F842
:1050700013208A4203D1401C80B2A042F6D3A04242
:1050800025D24046FCF7ACFF0020494607E000BFB0
:105090003AF810208319401C21F8132080B2A04256
:1050A000F6D31D4940464FF4806200BFFFF798FFDA
:1050B000A54210D0281B0AEB440AA344002685B25F
:1050C0004FF480647F1CA542C2D82C46C0E722461C
:1050D00051465846EAE7BDE8F05FFCF752BFBDE82D
:1050E000F09F13B5012201A9FFF79BFF1CBD08B576
:1050F00001226946FFF788FFBDF8000008BD13B51F
:10510000022201A9FFF78DFF1CBD08B502226946E6
:10511000FFF77AFF009808BDD60A00203EB50C467E
:1051200005460121C802FBF770FEADF800400020E3
:10513000ADF80450404CADF80600ADF802006946E9
:105140002046FCF783F801212046FCF728FB0121CB
:105150002046FCF7DAFB01212046FCF72AFB3EBD86
:1051600023214FF47A70D9E710B586B001210420CD
:10517000FBF74BFE18208DF8130003208DF812006A
:105180004FF48070ADF8100004A92C48FBF735FCF3
:105190007020ADF800000120ADF802000020264C80
:1051A000ADF80600ADF8080069462046FCF787F820
:1051B00008212046FCF7D1FB06B010BD10B586B023
:1051C00001210420FBF721FE18208DF81300032095
:1051D0008DF812004FF40060ADF8100004A91748D4
:1051E000FBF70BFC7020ADF800000120ADF80200C9
:1051F0000020114CADF80600ADF8080069462046C5
:10520000FCF708F908212046FCF7C8FBD4E74FF467
:105210007A7148436421B0FBF1F081B20648FCF793
:10522000C0BC4FF47A7148436421B0FBF1F081B205
:105230000148FCF7BCBC0000002C01400008014004
:1052400070B50546002403E0002100F04DF9641C10
:1052500055F824000028F7D170BD70B5054600242C
:1052600003E000BF00F058F9641C55F82400002842
:10527000F8D170BD70B5674C206890B1FDF7ACFDFA
:105280002168D1E900231A44121A06E0D1E9003559
:105290002B441B1A934200D21A4689680029F5D183
:1052A0001044606070BD5B48083000F0B1B92DE972
:1052B000F04106460388574D00202BB15A2B08D0E9
:1052C00030800320BDE8F08128605A203080012022
:1052D000F8E7872905D08229F7D1804600272C6876
:1052E00024E0286800E0806810B1C1689142FAD0DB
:1052F000286038B9E9E7CB68934202D189688160B8
:1053000000E0084681680029F5D1DEE7204600F07C
:10531000A7F948B122468821E06800F060F940B161
:105320003C48083000F074F92746A468002CEDD101
:10533000CBE7C4F80C80A16840460FB1B96000E02B
:105340002960A060FFF796FFC8E710B50446314812
:10535000083000F05DF92F49E06848B1086805E0C1
:10536000A04202D1BDE8104084E780680028F7D150
:1053700029480068E0600868A0600C60F2E710B59A
:10538000044600F05BF92046BDE81040DDE710B5AB
:10539000044600F05AF92046BDE81040D5E710B5A4
:1053A000044600F057F92046BDE81040CDE70268FA
:1053B000114401605EE7C06808B100207047012019
:1053C0007047D0E9001008447047006870471148E2
:1053D0000068002800D0012070470E48016809B11C
:1053E000406870470020704710B5044609480168BE
:1053F0008C4203D18968016006E0014631B18868BA
:10540000A042FAD1A0688860FFF734FF0020A060B6
:10541000E06010BDC8000020EC00002085498878BD
:10542000421C8A7070472DE9F041824E054688463D
:10543000D6E90207044600E00068A84203D000282D
:10544000FAD1BDE8F0810028FBD0A87BB0B10020E4
:10545000A87307E0A54204D02A468721204600F021
:105460001EF82468002CF5D1AB683BB1454505D04A
:105470000022832105F10C00F5609847B068854251
:1054800009D10068B06008E00168A94202D129682A
:10549000016002E008460028F6D1F760D1E770B558
:1054A0000446807B0D46C00711D0A368002B0ED0A8
:1054B0006048C4600220A07304F10C0098470228E1
:1054C00006D0032804D0832D02D00120A07370BD24
:1054D0002146BDE870400846A5E770B5554CE56823
:1054E000FFF7DDFFE56070BD524A30B493681C469B
:1054F00000E01B68834201D0002BFAD1834209D01F
:105500000460906001228273002282810A4630BCCE
:105510008121E2E730BC70474649C96883E74548C6
:105520008A21817000210171C1708160C160704762
:1055300070B54048002545710126846809E0E07B8C
:1055400030B1A673E573002282212046FFF7A7FF42
:105550002468002CF3D170BD70B5364CE378002B75
:1055600026D02579344805EB45026D1C10F8221031
:1055700000EB8200217042682261806805F01F05FF
:10558000606125715B1EE37010B1812911D012E0BA
:10559000A0680AE0607908B1FFF7CAFF21782269A4
:1055A000A069FFF77CFFA0690068A0610028F1D125
:1055B00070BD01238373BDE8704070E710B51D4CCA
:1055C000607908B1FFF7B4FFFFF7C6FFE0786179B3
:1055D000084410BD1748C17840790844704770B539
:1055E000144CE378202B11D025791D4405F01F05BC
:1055F000657005EB4506104D5B1C05F8261005EBA4
:105600008601C1E90120E370002070BD012070BD5A
:10561000002808D0817B012901D0022903D1012172
:10562000C173044841717047807B002800D001207D
:1056300070470000E0000020D812002010B504469A
:105640004160FDF7C9FB206010BDD0E90012114494
:105650000160704710B50446FDF7BEFB206010BD29
:1056600010B50446FDF7B8FB2168401A6168401C7C
:10567000814201D2012010BD002010BD10B50446AA
:10568000FDF7AAFBD4E900121144081A10BD00006E
:1056900010B50446008838B123280BD0252816D031
:1056A00000202080032010BDC821F948FFF767FEC5
:1056B00023200AE0F648FFF77EFE78B1FDF7AAF94D
:1056C000C821F348FFF75BFE2520208006E0F04864
:1056D000FFF771FE10B1FDF7C7F9E5E7012010BD36
:1056E00070B5044600884FF4FA7538B133280CD0F1
:1056F00037281BD000202080032070BDE4482946B5
:105700001030FFF73CFE33200EE0E1481030FFF789
:1057100052FEA8B1DFA00B21FDF751F9DC48294664
:105720001030FFF72CFE3720208009E0D8481030D9
:10573000FFF741FE20B1DAA00B21FDF740F9DDE7CC
:10574000012070BD10B50446008828B1492820D03A
:1057500000202080032010BD1521D4A000F071FE90
:105760002B21D8A000F06DFE1821E1A000F069FE09
:105770001821E6A000F065FE1A21EBA000F061FE02
:10578000C3484FF4FA712030FFF7F9FD492020801B
:1057900005E0BF482030FFF70EFE0028DCD10120D5
:1057A00010BD10B50446008828B1602820D0002024
:1057B0002080032010BD012006F00DFCE1490128E6
:1057C0000870E14902D0022803D005E008680A30D9
:1057D00001E008680A3808600968DCA008F0ACFC41
:1057E000AB48C8213030FFF7CAFD6020208005E0BB
:1057F000A7483030FFF7DFFD0028DCD1012010BDC5
:105800007CB504460088002520B1742825D0258069
:1058100003207CBD06F022FC07F042F807F07EF87A
:1058200008F04AF81826CDE9006502460423D22183
:10583000312006F042FBC448CDE90065026803232D
:10584000D2214FF4827006F038FB9148012140309C
:10585000FFF795FD7420208005E08D484030FFF76C
:10586000AAFD0028D6D101207CBD10B504460088D1
:1058700028B1822811D000202080032010BD3221C1
:105880000120FDF75AFDAF49488181480121503080
:10589000FFF775FD8220208005E07D485030FFF73E
:1058A0008AFD0028EBD1012010BD70B505460088A7
:1058B000002826D1A9A008F03FFCA24C012060805E
:1058C000FDF78AFAA080608800EB80004000FDF7B9
:1058D000BCFCFDF781FAE080A188401A82B22281E7
:1058E0006088134600EB80004100A6A008F024FC6D
:1058F0006088401C80B260801028E1D3A9A008F025
:105900001BFC00202880032070BD70B50446008871
:10591000002835D1FEF7C7FF0646A5A0FEF7ADFF6C
:105920000246A9A13046FEF79AFE0020A849FEF7DC
:1059300092FF0246A7A13046FEF791FEA7A0FEF710
:105940009CFF0246A8A13046FEF789FEFEF75FFFE6
:105950000246A8A13046FEF782FE3046FEF725FE3D
:1059600005463046FDF7C7FE284607F07BFC82B2AD
:105970002B46F421002007F02AF9284609F05CF9AB
:1059800000202080032070BD2DE9F04104460088EE
:105990004FF4FA6640B1B92855D0CD2853D0002035
:1059A00020800320BDE8F081394831466030FFF7A0
:1059B000E6FCB92045E000BFFEF775FF804690A0E9
:1059C000FEF75BFF024688A14046FEF748FE8EA028
:1059D000FEF753FF02468EA14046FEF740FE8E487A
:1059E000008807F043FFFEF736FF024679A14046E4
:1059F000FEF735FE534D688907F038FFFEF72BFFA1
:105A0000024686A14046FEF72AFE4046FEF7CDFD3F
:105A100007464046FDF76FFE384607F023FC82B28A
:105A20003B46F521012007F0D2F8E968481CE86000
:105A30007BA008F081FB164831466030FFF79FFCE1
:105A4000CD20208005E012486030FFF7B4FC00282C
:105A5000B2D10120A6E710B50446008828B1D828A5
:105A60000BD000202080032010BD09480A2170308F
:105A7000FFF785FCD8202080D8E005487030FFF77C
:105A80009AFC20B107F09FF907F0A0F9EDE7CDE00F
:105A90005814002020617364666166617364660057
:105AA00020323133393834313668790048656C6CCE
:105AB0006F2057353530302069732072756E210D97
:105AC0000A000000204C6F7665204C6976652052F4
:105AD00065777269746520466174652F5A72656FC7
